:020000040800F2
:10000000B0050020450100081B140008A7120008D5
:10001000191400088D0100081118000800000000E4
:100020000000000000000000000000003F14000875
:10003000C1010008000000003D1400084114000840
:100040005F0100085F0100085F0100085F01000810
:100050005F0100085F0100085F0100085F01000800
:100060005F0100085F0100085F0100085F010008F0
:100070005F0100085F010008910100089D01000870
:10008000A9010008B50100085F0100085F01000830
:100090005F0100085F0100085F0100085F010008C0
:1000A0005F0100085F0100085F0100085F010008B0
:1000B0005F0100085F0100085F0100085F010008A0
:1000C0005F0100085F0100085F0100085F01000890
:1000D0005F010008F9170008051800085F01000813
:1000E0005F0100085F0100085F0100085F01000870
:1000F0005F0100085F0100085F0100085F01000860
:100100005F0100085F0100085F0100085F0100084F
:100110005F0100085F0100085F0100085F0100083F
:100120005F0100085F0100085F0100085F0100082F
:10013000DFF80CD000F018F8004800473518000828
:10014000B00500200648804706480047FEE7FEE766
:10015000FEE7FEE7FEE7FEE7FEE7FEE7FEE7FEE777
:10016000B514000831010008064C074D06E0E068B0
:1001700040F0010394E8070098471034AC42F6D3EE
:10018000FFF7DAFFE018000800190008FEE700009A
:10019000014800F0AFB80000A0000020014800F0C6
:1001A000A9B800005C000020014800F0A3B80000DE
:1001B00024010020014800F09DB8000068010020E3
:1001C000704700002DE9F05F90F82110002402290B
:1001D00003D004218163012485E001680A6822F0CC
:1001E0000E020A6001680A6822F001020A603F4EAE
:1001F0003E4FB215DFF8F4C0DFF8F090DFF8ECA066
:10020000DFF8E8B0DFF8E4E00168783F1301150299
:10021000ACF1640CA9F15009AAF13C0AABF1280B2E
:10022000AEF1140E4FF48018B14227D9B9420ED066
:10023000614512D049451DD0514518D0594518D0B7
:10024000714501D1424615E0294EB14201D101224A
:1002500010E0274E1436B14201D110220AE0244E9C
:100260002836B14206D0224A3C32914201D11A4688
:1002700000E02A461E49091F0A602BE0B94213D04C
:10028000614517D0494522D051451DD059451DD053
:10029000714501D142461AE0B14202D14FF080725D
:1002A00015E0134EB14201D1012210E0104E143678
:1002B000B14201D110220AE00D4E2836B14206D0DB
:1002C0000B4A3C32914201D11A4600E02A460749C6
:1002D00080394A60012180F82110002180F8201027
:1002E000416B01B188472046BDE8F09F8000024085
:1002F000080402402DE9F05FC16B0A6801680B68D1
:10030000046C4FF0040808FA04F8844D844E854FBD
:10031000DFF814C2DFF81492DFF814A2DFF814B289
:10032000DFF814E218EA020F65D05FEA437862D57D
:100330000A68920603D40A6822F004020A60DFF811
:10034000F0814FF48062016808F11408130114026F
:10035000414524D9A9420DD0B1420FD0B9421AD09B
:10036000614515D0494515D0514501D1120312E020
:10037000594501D104220EE0714501D140220AE025
:100380006D4D1435A94206D06B4A2832914201D1F5
:100390001A4600E022466749091F0A6029E0A9427F
:1003A00013D0B14215D0B94220D061451BD0494588
:1003B0001BD0514502D14FF4800217E0414502D1D4
:1003C0004FF0806212E0594501D104220EE07145E0
:1003D00001D140220AE0584D1435A94206D0564AB0
:1003E0002832914201D11A4600E022464B49083991
:1003F0004A60C16A71E04FF0020808FA04F818EA8E
:10040000020F70D05FEA83786DD50A68920606D431
:100410000A6822F00A020A60012180F82110DFF840
:1004200010814FF40072016808F1140813011402DE
:10043000414524D9A9420DD0B1420FD0B9421AD0BA
:10044000614515D0494515D0514501D1120312E03F
:10045000594501D102220EE0714501D120220AE066
:10046000354D1435A94206D0334A2832914201D184
:100470001A4600E022462F49091F0A6029E0A942D6
:1004800013D0B14215D0B94220D061451BD04945A7
:100490001BD0514502D14FF4001217E0414502D163
:1004A0004FF0007212E0594501D102220EE0714571
:1004B00001D120220AE0204D1435A94206D01E4A5F
:1004C0002832914201D11A4600E0224613490839E8
:1004D0004A60002180F82010816A00291CD0BDE804
:1004E000F05F0847FFE70825A540154214D01A071A
:1004F00012D50A6822F00E020A6090F84020C36B01
:10050000012101FA02F25A60816380F82110002172
:1005100080F82010016BE0E7BDE8F09F0800024082
:100520001C000240300002404400024058000240DB
:100530006C000240080402401C04024030B560B167
:100540001C4A03681421934209D21B4A1A44B2FB85
:10055000F1F18900016419490AE0012030BD154A12
:1005600052421A44B2FBF1F1890001641149083981
:10057000C163022180F821101A6843F6F0718A43A2
:10058000F0E901142143D0E902452C4321430469D9
:1005900021434469214384692143114319600021A7
:1005A00041628162C1620163416301224277017746
:1005B000084630BD08040240F8FFFDBF00000240BD
:1005C00070B5044600F008F90546601C02D00448E6
:1005D0000078044400F000F9401BA042FAD370BD3B
:1005E000000000202DE9F84FDFF8B8A100220AF141
:1005F000040B144601274FF00F090BF1040E00BF46
:100600000B6807FA04F52B40AB4274D1DFF898C1B0
:100610004E68A6EB0C0866452BD00DDC032E34D0BB
:1006200005DC36B3012E19D0022E2FD11BE0112E7E
:1006300016D0122E2AD119E0B8F5881F19D006DC81
:10064000B8F5803F15D0B8F5801F1FD111E0B8F57F
:10065000001F0ED0B8F5041F18D10AE0CA6815E0D3
:10066000CA68121D12E0CA6808320FE0CA680C326C
:100670000CE08A682AB1012A4FF0080203D04561D4
:1006800004E0042202E0056100E00022FF2B01D813
:10069000064601E000F104064FEA840501D9A5F100
:1006A0002005D6F800C009FA05F82CEA080C02FA71
:1006B00005F54CEA050CC6F800C04D68ED006AD59A
:1006C0003A4DAE6946F00106AE61AD6924F003060D
:1006D00005F001050095364D06EB050CDCF80850D9
:1006E000A6074FEA167809FA08F6B543314EB0422C
:1006F00002D100261AE04EE02F4EB04201D1012671
:1007000014E02E4EB04201D102260FE02C4EB04232
:1007100001D103260AE02B4EB04201D1042605E0A8
:10072000294EB04201D1052600E0062606FA08F659
:100730002E43CCF808604D68DAF80060ED035546AA
:1007400001D51E4300E09E432E604D68AD0305D5E4
:10075000DBF800601E43CBF8006004E0DBF80050DB
:100760009D43CBF800504D68DEF80060ED02754601
:1007700001D51E4300E09E432E604D68AD0205D5B5
:10078000084D0C352E681E432E6004E0054E0C36D5
:1007900035689D433560641C102CFFF431AFBDE813
:1007A000F88F00000004014000001110001002400A
:1007B0000000014000080140000C01400010014011
:1007C0000014014000180140001C01400AB1016101
:1007D00070470904FBE7000001488068704700008B
:1007E000000000200248816802781144816070474F
:1007F00000000020074810B5016841F010010160B9
:10080000032000F095F8002000F006F800F024F82E
:10081000002010BD0020024070B50D4D04464FF47D
:100820007A712878B1FBF0F00A490968B1FBF0F061
:1008300000F025FB48B9102C07D200222146501E9B
:1008400000F056F800206C6070BD012070BD000003
:10085000000000200C0000201D4808B5816941F00F
:1008600001018161806900F001000090032000F027
:100870005FF8002211466FF00B0000F039F80022FB
:1008800011466FF00A0000F033F8002211466FF0B5
:10089000090000F02DF800221146501F00F028F842
:1008A00000221146101F00F023F800221146901E6E
:1008B00000F01EF800221146501E00F019F80548FD
:1008C000416821F0E06141F00071416008BD000025
:1008D000001002400000014000F01F020121914081
:1008E0004009800000F1E020C0F8001170470000CE
:1008F000F0B40E4B1B680C46C3F30223C3F107058B
:10090000042D00D90425191D072901D2002300E078
:10091000DB1E012606FA05F1491E214099409E4042
:10092000761E16403143F0BC00F078BD0CED00E0BF
:10093000064900F0070208684FF6FF03184040EA36
:100940000220034A10430860704700000CED00E0ED
:100950000000FA052DE9F047DFF83C8105460E4618
:10096000D8F8000000F00700B0420CD2D8F8001010
:1009700021F007013143C8F80010D8F8000000F05A
:100980000700B04263D12878444C800705D56068E1
:10099000A96820F0F000084360602878C00745D0BF
:1009A0006868012816D02168022816D08907002916
:1009B0004DDA616821F0030101436160FFF70CFF2C
:1009C0006968074641F2883001290FD00229814623
:1009D00019D027E021688903E9E78901E7E700BF2B
:1009E000FFF7FAFEC11B494501D918E0814660684E
:1009F000C0F381000128F3D118E000BFFFF7ECFE3F
:100A0000C11B49450BD86068C0F381000228F5D1AD
:100A10000CE000BFFFF7E0FEC11B494502D90320EF
:100A2000BDE8F087606810F00C0FF3D1D8F8001023
:100A3000404601F00701B1420BD9016821F00701DE
:100A400031430160006800F00700B04201D001208E
:100A5000E6E72878400705D56068E96820F4E0609B
:100A6000084360602878000706D56068296920F48B
:100A7000605040EAC100606000F03CF86168084ADC
:100A8000C1F30311515CC840064908600020FFF71C
:100A9000C3FE0020C4E70000002002400010024016
:100AA000C81800080C0000200148006870470000CA
:100AB0000C0000200448054900684968044AC1F355
:100AC0000221515CC84070470C0000200010024019
:100AD000D81800080448054900684968044AC1F369
:100AE000C221515CC84070470C0000200010024039
:100AF000D818000812A185B00FC98DE80F0014A006
:100B0000144A006804905168134801F00C03042B48
:100B100010D0082B0ED1C1F38343C9031DF8030085
:100B20000AD5516804AAC1F34041515C0A4A5043B6
:100B3000B0FBF1F005B0704708494843FAE7000000
:100B400002030405060708090A0B0C0D0E0F10100E
:100B5000010200000010024000127A0000093D006E
:100B60002DE9F84F04460078B94DC00748D06868B1
:100B7000C0F38100012807D06868C0F38100022813
:100B800009D16868C00306D52868800338D5606835
:100B900000286FD034E06068B0F5803F0BD010B112
:100BA000B0F5A02F11D0286820F480302860286884
:100BB00020F4802002E0286840F4803028606068DB
:100BC00088B1FFF709FE064609E0286840F4802056
:100BD0002860F0E7FFF700FE801B642875D82868BE
:100BE0008003F7D50CE0FFF7F7FD064605E000BFF0
:100BF000FFF7F2FD801B6428F0D828688003F7D443
:100C00002078944E80074FF001094FF000083BD543
:100C1000686810F00C0F07D06868C0F381000228E4
:100C200009D16868C00306D42868800714D52069F4
:100C300001281FD110E02069B0B1C6F80090FFF77D
:100C4000CBFD074605E000BFFFF7C6FDC01B02282D
:100C5000C4D828688007F7D52868616920F0F800B3
:100C600040EAC10028600FE0C6F80080FFF7B4FD3D
:100C7000074606E0E9E000BFFFF7AEFDC01B022813
:100C800023D828688007F7D4207800072CD572482D
:100C9000A169D9B1C0F80090FFF79EFD074604E0B6
:100CA000FFF79AFDC01B02280FD8686A8007F7D5A6
:100CB0006A484FF4FA510068B0FBF1F0009000BFB1
:100CC0000098411E0091FAD20EE080E0C0F800804A
:100CD000FFF782FD074604E0FFF77EFDC01B0228F8
:100CE00075D8686A8007F7D42078400760D5E8692E
:100CF0000027C00008D4E86940F08050E861E86946
:100D0000012700F08050009055480168C90513D4B0
:100D10000168834641F480710160FFF75DFD824602
:100D200006E000BFFFF758FDA0EB0A0064284ED88C
:100D3000DBF80000C005F5D5E06801280AD008B14D
:100D4000052813D0286A20F001002862286A20F0C4
:100D5000040002E0286A40F001002862E06841F2E5
:100D6000883B98B1FFF738FD82460BE0286A40F0D7
:100D700004002862EEE700BFFFF72EFDA0EB0A019A
:100D800059455AD8286A8007F6D50CE0FFF724FDAC
:100D9000824605E0FFF720FDA0EB0A0159454CD83B
:100DA000286A8007F6D41FB1E86920F08050E86116
:100DB000E06988B36968C1F38101022945D002283E
:100DC000C6F8608004D0FFF707FD044638E034E041
:100DD000FFF702FD074604E0FFF7FEFCC01B0228F8
:100DE0002BD828688001F7D4206AB0F5803F05D160
:100DF0006868A16820F4003008436860D4E90801FD
:100E00000843696821F4741108436860C6F860906B
:100E1000FFF7E2FC044606E015E000BFFFF7DCFC4C
:100E2000001B022809D828688001F7D50BE000BF15
:100E3000FFF7D2FC001B022802D90320BDE8F88F7F
:100E400028688001F4D40020F8E70120F6E70000CC
:100E50000010024000004242800442420C00002088
:100E6000007000404FF0E0210428086903D020F012
:100E700004000861704740F00400FAE7704710B5BD
:100E8000401EB0F1807F01D3012010BD4FF0E0245F
:100E900060610F21601700F0C1FA0020A0610720F7
:100EA0002061002010BD10B5FFF7E8FF10BD7047AE
:100EB00070B5026804461068D168536910F00F0FCE
:100EC00050D003F0010501F4907635435DD0C207A0
:100ED00005D0CA0503D5E26B42F00102E263420786
:100EE00005D5DA0703D0E26B42F00202E263820723
:100EF00005D5DA0703D0E26B42F00402E263020791
:100F000005D5DA0703D0E26B42F00802E263E26B38
:100F1000002A33D0800604D5880602D5204600F08A
:100F200003FB20684069E16BC0F38010090700D41F
:100F300028B3204600F0EAFA2068416949061AD52C
:100F4000416921F040014161606BA0B11B494163DF
:100F5000606BFFF737F9002810D0606B416BBDE87C
:100F600070400847830610D58B060ED52046BDE895
:100F7000704000F0D9BA2046FFF799FF70BD2046B7
:100F8000FFF795FF0020E06370BD030606D50B0652
:100F900004D52046BDE8704000F0CABB4006F3D53A
:100FA0004806F1D5D168204621F04001D1602021CA
:100FB00084F8391000F076F970BD0000FD140008C7
:100FC00070B5040004D094F83900002510B106E093
:100FD000012070BD84F83850204600F023F824200A
:100FE00084F839002068C16821F40051C1602046AE
:100FF00000F0E6FA2068016921F49041016120685F
:10100000416921F02A0141612068C16841F4005121
:10101000C160E563202084F8390084F83A0000209C
:1010200070BD00002DE9F0430446DFF854C10368A9
:10103000544802210322544F0025802685B04FF0EA
:1010400020084FF01009634548D1836943F4804379
:1010500083618069039200F4804004900802CDE926
:10106000000169463846FFF7BDFAF000CDE90005FA
:10107000694638460295FFF7B5FA454F4348C7E938
:101080000005C7E902563D61C7E905583846FD61CC
:10109000FFF754FA18B188213EA000F0BAFB67634D
:1010A0007C623B4F394844371438C7E902563D61EA
:1010B0007D61BD61FD61C7E900093846FFF73EFA71
:1010C00018B1982133A000F0A4FB27630022114639
:1010D00025207C62FFF70CFC25204CE0DFF8C4C023
:1010E00063454AD1C36943F40033C361C0690392C5
:1010F00000F4003004900420CDE900016946384630
:10110000FFF770FA0820CDE90005694638460295D8
:10111000FFF768FA1E4F1D48C8371430C7E90005AD
:10112000C7E902563D61C7E905583846FD61FFF73A
:1011300005FA18B1C62117A000F06BFB67637C624B
:10114000194F1248C7E902563D617D61BD612830E3
:10115000FD61C7E900093846FFF7F0F918B1D6215B
:101160000CA000F056FB27630022114626207C626B
:10117000FFF7BEFB2620FFF7AFFB05B0BDE8F0830D
:1011800000380140001002400008014058000240B1
:101190005C0000202E2E2F5372632F7573617274C2
:1011A0002E63000000440040680100202DE9F84350
:1011B000044690F83A00994616460D4620284FD12D
:1011C00095B18EB194F83800012849D0012084F8F7
:1011D00038000027E763222084F83A00FFF7FCFA82
:1011E000A6858046E68531E00120BDE8F883E08DE4
:1011F000401EE085A0684346B0F5805F4FF00002D6
:101200004FF020012046CDF8009004D000F0C1FA44
:1012100098B10320E9E700F0BCFA0028F9D1206971
:1012200000282068406803D0C1B225F8011B0DE0FA
:10123000C0F3080125F8021B08E020690028206897
:10124000406801D000F07F0005F8010BE08D002818
:10125000CDD1202084F83A0084F838700020C4E70B
:101260000220C2E7704790F83930202B18D1A9B17D
:10127000A2B190F83830012B12D001628284C2846E
:101280000021C163212280F8392080F838100068DD
:10129000C16841F08001C1600020704701207047A3
:1012A000022070477047FEE7154808B5416941F0D4
:1012B000010141614069002200F0010000901146E7
:1012C0000E20FFF715FB0E20FFF706FB002211464C
:1012D0000F20FFF70DFB0F20FFF7FEFA002211464B
:1012E0001020FFF705FB1020FFF7F6FA0022114649
:1012F0001120FFF7FDFABDE808401120FFF7ECBA16
:10130000001002401B4810B5816986B041F0100101
:101310008161816901F010010491816941F004014A
:101320008161816901F004010491816941F0080142
:1013300081618069104C00F00800049001220E21A8
:101340002046FFF743FA0E20009001200190022072
:10135000039069462046FFF745F94FF4704000902E
:1013600000200190029069460448FFF73BF906B05F
:1013700010BD00000010024000100140000C0140B0
:101380000D4810B50B4901604FF416514160002122
:1013900081600C22C160C0E904128161C161FFF764
:1013A0000FFE002805D0BDE810404A2103A000F040
:1013B00030BA10BD003801401C0000202E2E2F53E3
:1013C00072632F75736172742E6300000D4810B53F
:1013D0000B4901604FF416514160002181600C22DD
:1013E000C160C0E904128161C161FFF7E9FD002815
:1013F00005D0BDE810405D2103A000F00ABA10BD81
:1014000000440040E40000202E2E2F5372632F75FD
:10141000736172742E630000FEE770470907090EBE
:10142000002806DA00F00F0000F1E02080F8141D1B
:10143000704700F1E02080F8001470477047704753
:1014400010B5FFF7CFF9BDE81040FFF72CBD30B560
:101450008FB00225012004900095102005900024F3
:101460004FF46010CDE9084007956846FFF778FB18
:1014700000B1FEE70F20CDE90A054FF48060CDE909
:101480000C4002210AA80E94FFF764FA00B1FEE7AF
:10149000FFF70AFB4FF47A71B0FBF1F0FFF7EFFCB6
:1014A0000420FFF7DFFC00221146501EFFF720FA50
:1014B0000FB030BD0D48016841F001010160416885
:1014C0000B4A1140416001680A4A114001600168FD
:1014D00021F480210160416821F4FE0141604FF454
:1014E0001F0181600449C00308607047001002407A
:1014F0000000FFF8FFFFF6FE08ED00E010B5406ABF
:101500000021C185C184FFF7D2FC10BD0168CA6803
:1015100022F49072CA6001684A6922F001024A61AD
:10152000202180F83A10704710B590F83A1022291F
:1015300001D0022010BD8168B1F5805F11D0016932
:10154000002901681FD0496801F07F03816A4A1CA5
:1015500082620B70C18D491E0904090CC18518D027
:101560002BE00269816A002A0268526805D0D2B273
:101570000A80816A491C8162ECE7C2F308020A8092
:10158000816A891CF7E74A68816A4B1C83620A708A
:10159000E0E70168CA6822F02002CA600168CA68F0
:1015A00022F48072CA6001684A6922F001024A612D
:1015B000202180F83A10FFF755FE002010BD0000F2
:1015C0002DE9F041044600680169E26821F44051C8
:1015D000114301612169A0680843616908432168DA
:1015E000CA6841F20C639A430243CA6020684169A9
:1015F000A26921F44071114341614C49206864257E
:10160000322688423CD1FFF765FA00EBC00101EBBE
:10161000001061688900B0FBF1F7FFF75BFA00EB9F
:10162000C00101EB00106168B0468900B0FBF1F029
:10163000B0FBF5F06FF01801484307EB800106EBB3
:101640000110B0FBF5F000F0F006FFF743FA00EBF5
:10165000C00101EB001061688900B0FBF1F0B0FB44
:10166000F5F006EB0016FFF735FA00EBC00101EBD1
:10167000001061688900B0FBF1F7FFF72BFA3BE03F
:10168000FFF718FA00EBC00101EB00106168890058
:10169000B0FBF1F7FFF70EFA00EBC00101EB001011
:1016A0006168B0468900B0FBF1F0B0FBF5F06FF077
:1016B0001801484307EB800106EB0110B0FBF5F081
:1016C00000F0F006FFF7F6F900EBC00101EB0010A7
:1016D00061688900B0FBF1F0B0FBF5F006EB001695
:1016E000FFF7E8F900EBC00101EB00106168890029
:1016F000B0FBF1F7FFF7DEF900EBC00101EB0010E2
:1017000061688900B0FBF1F0B0FBF5F06FF01801F3
:10171000484307EB800108EB0110B0FBF5F02168AE
:1017200000F00F0030448860BDE8F08100380140CF
:1017300090F83910212901D0022070478168B1F555
:10174000805F016A0BD04A1C02620268097851600E
:10175000C18C491E0904090CC1840ED017E0098808
:101760000268C1F30801516001690029016A02D0D1
:10177000491C0162ECE7891CFBE70168CA6822F09A
:101780008002CA600068C16841F04001C160002069
:1017900070472DE9F041984617460E460446069DCF
:1017A0001DE0681C1BD02DB1FFF716F8A0EB080058
:1017B000A84214D92068C16821F4D071C1602068A2
:1017C000416921F001014161202084F8390084F849
:1017D0003A00002084F838000320BDE8F08120683A
:1017E000006836EA000004D00020B842D9D00020BA
:1017F000F3E70120F9E700000148FFF759BB0000BB
:101800001C0000200148FFF753BB0000E40000204B
:10181000FEE7FEE702E008C8121F08C1002AFAD15D
:1018200070477047002001E001C1121F002AFBD160
:1018300070470000FEF7DEFFFFF709FEFFF762FDCD
:10184000FFF732FDFFF7C2FDFFF79AFD1B4E1C4C60
:10185000751C4FF47A7701231A4618491948FFF787
:10186000A5FC3078312806D032280BD033281FD081
:10187000342814D11EE0012202212046FEF7A6FFE3
:10188000002205E0002202212046FEF79FFF0122F0
:1018900004212046FEF79AFF0220FEF791FE012266
:1018A000691C0848FFF7DFFC3846FEF789FED2E7DF
:1018B000012200E000220621EBE7000010000020DA
:1018C000001001401C00002000000000000000008B
:1018D00001020304060708090000000001020304D6
:1018E00000190008000000201C0000001418000867
:1018F0001C1900081C000020940500002418000892
:1019000001000000100000000000000000A24A04D6
:0C191000003132333435363738393000BE
:0400000508000131BD
:00000001FF
